:0400000007EF00F016
:0A0008005D8201ED08F083EF0CF0BB
:1010000000000600FACF4DF0FBCF4EF0F2A80BEF38
:1010100008F00DEF08F016EF08F0F2A212EF08F05A
:1010200014EF08F016EF08F05DEC0DF0F0A61BEFE2
:1010300008F01DEF08F026EF08F0F0A022EF08F00E
:1010400024EF08F026EF08F05BEC0DF0F0A82BEF92
:1010500008F02DEF08F036EF08F0F0A232EF08F0BC
:1010600034EF08F036EF08F059EC0DF0F2AA3BEF40
:1010700008F03DEF08F046EF08F0F2A442EF08F068
:1010800044EF08F046EF08F0DAEC0CF0F2A64BEF74
:1010900008F04DEF08F068EF08F0F2A052EF08F00A
:1010A00054EF08F068EF08F081A859EF08F05BEF03
:1010B00008F068EF08F02204D8A461EF08F063EFAD
:1010C00008F068EF08F0000E226E000E4AEC0DF0FA
:1010D000F2A66DEF08F06FEF08F08AEF08F0F2A0CB
:1010E00074EF08F076EF08F08AEF08F081B87BEF34
:1010F00008F07DEF08F08AEF08F02250D8A483EFC3
:1011000008F085EF08F08AEF08F0010E226E010E5C
:101110004AEC0DF0F2A68FEF08F091EF08F0ACEF7B
:1011200008F0F2A096EF08F098EF08F0ACEF08F0A6
:1011300081AA9DEF08F09FEF08F0ACEF08F02104C2
:10114000D8A4A5EF08F0A7EF08F0ACEF08F0000E68
:10115000216E000E3DEC0DF0F2A6B1EF08F0B3EFFA
:1011600008F0CEEF08F0F2A0B8EF08F0BAEF08F000
:10117000CEEF08F081BABFEF08F0C1EF08F0CEEF74
:1011800008F02150D8A4C7EF08F0C9EF08F0CEEF5F
:1011900008F0010E216E010E3DEC0DF0F2A6D3EF2A
:1011A00008F0D5EF08F0F0EF08F0F2A0DAEF08F061
:1011B000DCEF08F0F0EF08F081ACE1EF08F0E3EFCE
:1011C00008F0F0EF08F02004D8A4E9EF08F0EBEF06
:1011D00008F0F0EF08F0000E206E000E30EC0DF07D
:1011E000F2A6F5EF08F0F7EF08F012EF09F0F2A021
:1011F000FCEF08F0FEEF08F012EF09F081BC03EFFE
:1012000009F005EF09F012EF09F02050D8A40BEF18
:1012100009F00DEF09F012EF09F0010E206E010E3A
:1012200030EC0DF0F2A617EF09F019EF09F034EFEA
:1012300009F0F2A01EEF09F020EF09F034EF09F0F9
:1012400081AE25EF09F027EF09F034EF09F01F0414
:10125000D8A42DEF09F02FEF09F034EF09F0000EBC
:101260001F6E000E23EC0DF0F2A639EF09F03BEFF4
:1012700009F056EF09F0F2A040EF09F042EF09F053
:1012800056EF09F081BE47EF09F049EF09F056EF3C
:1012900009F01F50D8A44FEF09F051EF09F056EFB5
:1012A00009F0010E1F6E010E23EC0DF04EC0FBFF86
:1012B0004DC0FAFF5D921100010E556E4F50D8B42B
:1012C00064EF09F066EF09F076EF09F04F50D96E40
:1012D000DA6ADF30E832E832070B506E070E5064EE
:1012E00074EF09F076EF09F0CDEF09F0000E556EBE
:1012F000EDEF09F04F50D96EDA6ADF30E832E832AC
:10130000070B506E010E516E502A89EF09F0D890EC
:101310005136502E87EF09F05150FF0A526E4F5050
:10132000D96EDA6ADF50070B020DF350150FD96E34
:10133000DA6ADECF53F0DDCF54F053C0D9FF54C08A
:10134000DAFF5250DF16EDEF09F04F50D96EDA6A2E
:10135000DF30E832E832070B506E010E516E502A32
:10136000B4EF09F0D8905136502EB2EF09F04F503B
:10137000D96EDA6ADF50070B020DF350150FD96EE4
:10138000DA6ADECF52F0DDCF53F052C0D9FF53C03E
:10139000DAFF5150DF12EDEF09F04F50D96EDA6AE3
:1013A000DFBCD5EF09F0D8EF09F0010ED9EF09F055
:1013B000000E506E516A5150000AD8B4E2EF09F0A5
:1013C00076EF09F05050000AD8B47AEF09F0010A1C
:1013D000D8B4A5EF09F076EF09F055501200010ED0
:1013E000566E4F50D8B4F7EF09F0F9EF09F009EF56
:1013F0000AF04F50D96EDA6ADF30E832E832070B74
:10140000516E070E516407EF0AF009EF0AF060EF22
:101410000AF0000E566E75EF0AF04F50D96EDA6A78
:10142000DF30E832E832070B516E010E526E512A5E
:101430001CEF0AF0D8905236512E1AEF0AF0525093
:10144000FF0A536E4F50D96EDA6ADF50070B020D58
:10145000F3500B0FD96EDA6ADECF54F0DDCF55F0C2
:1014600054C0D9FF55C0DAFF5350DF1675EF0AF0AC
:101470004F50D96EDA6ADF30E832E832070B516E2E
:10148000010E526E512A47EF0AF0D8905236512E73
:1014900045EF0AF04F50D96EDA6ADF50070B020DA4
:1014A000F3500B0FD96EDA6ADECF53F0DDCF54F074
:1014B00053C0D9FF54C0DAFF5250DF1275EF0AF063
:1014C0005050516E526A5250000AD8B46AEF0AF076
:1014D00009EF0AF05150000AD8B40DEF0AF0010AE2
:1014E000D8B438EF0AF009EF0AF056501200000E97
:1014F000546E52BE80EF0AF07EEF0AF086EF0AF0DB
:10150000516C521ED8B0522A010E546E50BE8DEF4F
:101510000AF08BEF0AF093EF0AF04F6C501ED8B030
:10152000502A010E541A000E566E000E556E515080
:101530005210D8B49EEF0AF0A0EF0AF0C8EF0AF0FC
:10154000010E536EA8EF0AF0D89051365236532A46
:1015500052AEADEF0AF0AFEF0AF0A4EF0AF0D89068
:101560005536563651504F5C52505058D8A0BBEFAC
:101570000AF0BDEF0AF0C2EF0AF051504F5E525030
:10158000505A5580D89052325132532EAFEF0AF054
:101590005450D8B4CEEF0AF0D0EF0AF0D4EF0AF0EE
:1015A000556C561ED8B0562A55C04FF056C050F054
:1015B00012005750D8A4DFEF0AF0E1EF0AF0E5EF90
:1015C0000AF0000E586E33EF0BF057C04FF05CEC92
:1015D00009F0586E57C04FF05750D96EDA6A000EB6
:1015E000DFBE010E506EEFEC09F0586E57284F6EBB
:1015F0005CEC09F0586E57284F6E5750D96EDA6A76
:10160000010ED926000EDFBE010E506EEFEC09F080
:10161000586E5750020F4F6E5CEC09F0586E5750E1
:10162000020F4F6E5750D96EDA6A020ED926000E9D
:10163000DFBE010E506EEFEC09F0586E5750030FED
:101640004F6E5CEC09F0586E5750030F4F6E5750B9
:10165000D96EDA6A030ED926000EDFBE010E506E77
:10166000EFEC09F0586E58501200000E546E50BE48
:101670003EEF0BF03CEF0BF044EF0BF04F6C501EC5
:10168000D8B0502A010E546E52BE4BEF0BF049EF0A
:101690000BF04FEF0BF0516C521ED8B0522A515044
:1016A0005210D8B456EF0BF058EF0BF07CEF0BF064
:1016B000010E536E60EF0BF0D89051365236532A1C
:1016C00052AE65EF0BF067EF0BF05CEF0BF0515093
:1016D0004F5C52505058D8A070EF0BF072EF0BF0E7
:1016E00076EF0BF051504F5E5250505AD890523214
:1016F0005132532E67EF0BF05450D8B482EF0BF0F9
:1017000084EF0BF088EF0BF04F6C501ED8B0502ACE
:101710004FC04FF050C050F012000EEC0DF0010E13
:10172000576E020EBDEC0CF05C6E4BC04FF0506A71
:10173000000E526E0A0E516E77EC0AF04F50576E43
:10174000000EBDEC0CF05C6E1A0E5B6EF80EE82E0F
:10175000FED75B2EFCD700D0020E576E020EBDECFA
:101760000CF05C6E4BC04FF0506A000E526E0A0EC9
:10177000516E35EC0BF04F50576E000EBDEC0CF077
:101780005C6E1A0E5B6EF80EE82EFED75B2EFCD751
:1017900000D0150E4B18D8A4D0EF0BF0D2EF0BF001
:1017A0008FEF0BF0000E4B6E8FEF0BF007EF00F09A
:1017B000010E546E5150D8A4E0EF0BF0E2EF0BF0A5
:1017C000E6EF0BF0000E546E1DEF0CF0D59E51C0ED
:1017D0004FF05AEC0CF051C04FF01FEC0CF051C020
:1017E0004FF0A0EC0CF05150D96EDA6A040ED926F5
:1017F000DECF52F0DDCF53F053C052F0536A525057
:10180000D76E5150D96EDA6A040ED926DF50D66EE3
:101810005150D96EDA6A040ED926DECF31F0DDCF11
:1018200032F0F28AF2945150D96EDA6ADECF33F098
:10183000DDCF34F0F28EF28CD58E545012004F5022
:10184000D96EDA6A060ED926DFA429EF0CF02BEF49
:101850000CF02EEF0CF0D59A59EF0CF04F50D96EDA
:10186000DA6A060ED926DFB438EF0CF03AEF0CF046
:1018700059EF0CF0D58A4F50D96EDA6A060ED92688
:10188000DFA245EF0CF047EF0CF04AEF0CF0D598D3
:1018900059EF0CF04F50D96EDA6A060ED926DFB236
:1018A00054EF0CF056EF0CF059EF0CF0D58859EFCF
:1018B0000CF012004F50D96EDA6A060ED926DFA05E
:1018C00064EF0CF066EF0CF075EF0CF0D5964F500E
:1018D000D96EDA6A030ED926DF50506ED5505018F3
:1018E000F80B5018D56E82EF0CF04F50D96EDA6AB3
:1018F000060ED926DFB07FEF0CF081EF0CF082EFFF
:101900000CF0D5861200EC0EF66E190EF76E000E76
:10191000F86E00EE01F010EE30F00900F5CFEEFFAA
:10192000E550E150FAE100EE31F01B0EEE6AE806F8
:10193000FDE15D905D92000EF86E00018DEF0BF001
:101940004F50D96EDA6A060ED926DFA6AAEF0CF040
:10195000ACEF0CF0AFEF0CF0D58CBCEF0CF04F50AF
:10196000D96EDA6A060ED926DFB6B9EF0CF0BBEFF6
:101970000CF0BCEF0CF0D59C12005A6E040E5A64A9
:10198000C4EF0CF0C6EF0CF0C8EF0CF0D8EF0CF081
:101990005A50020DF3500B0FD96EDA6ADECF58F0B1
:1019A000DDCF59F058C0D9FF59C0DAFF57C0DFFF6B
:1019B000010E1200F2943250D76E31C0D6FF335070
:1019C0003410D8B4E6EF0CF0E8EF0CF0F5EF0CF0C3
:1019D00002D8F5EF0CF00500FA6E3350FD6E34506E
:1019E000FE6EF850FF6EFA5012001200800F810F49
:1019F000820F830F840F890F8A0F8B0F8C0F8D0F2F
:101A0000920F930F940F950F960F01010101AE1ADB
:101A10000004DC0B0500081018000A022A0E576E9D
:101A2000D9EC0AF05C6E230E516ED8EC0BF05C6EB4
:101A3000300E4F6E5CEC09F05C6E2F0E4F6E5CEC5E
:101A400009F05C6E12004C6EF2904C50D8A42BEF53
:101A50000DF02DEF0DF02FEF0DF02FEF0DF0120028
:101A60004C6EF2904C50D8A438EF0DF03AEF0DF0D8
:101A70003CEF0DF03CEF0DF012004C6EF2904C502C
:101A8000D8A445EF0DF047EF0DF049EF0DF049EF09
:101A90000DF012004C6EF2904C50D8A452EF0DF0A5
:101AA00054EF0DF056EF0DF056EF0DF012004B2AEB
:0E1AB0001200F0921200F0901200F29212005A
:00000001FF
